8=FIX.4.4|9=66|35=A|34=1|49=MDF2|52=20230326-22:27:01.519|56=FABKOM2|98=0|108=30|10=236|8=FIX.4.4|9=54|35=0|34=2|49=MDF2|52=20230326-22:27:31.757|56=FABKOM2|10=199|8=FIX.4.4|9=54|35=0|34=3|49=MDF2|52=20230326-22:28:02.017|56=FABKOM2|10=188|8=FIX.4.4|9=54|35=0|34=4|49=MDF2|52=20230326-22:28:32.259|56=FABKOM2|10=200|8=FIX.4.4|9=54|35=0|34=5|49=MDF2|52=20230326-22:29:02.473|56=FABKOM2|10=197|8=FIX.4.4|9=54|35=0|34=6|49=MDF2|52=20230326-22:29:32.758|56=FABKOM2|10=207|8=FIX.4.4|9=54|35=0|34=7|49=MDF2|52=20230326-22:30:03.008|56=FABKOM2|10=186|8=FIX.4.4|9=54|35=0|34=8|49=MDF2|52=20230326-22:30:33.279|56=FABKOM2|10=200|8=FIX.4.4|9=54|35=0|34=9|49=MDF2|52=20230326-22:31:03.530|56=FABKOM2|10=189|